:100000000C9447030C948E030C948E030C948E0373
:100010000C948E030C948E030C948E030C948E031C
:100020000C948E030C948E030C9401230C94D52312
:100030000C942D1E0C948E030C948E030C948E0342
:100040000C948E030C948E030C948E030C948E03EC
:100050000C948E030C94841E0C948E030C948E03CB
:100060000C948E030C948E030C948E030C948E03CC
:100070000C948E030C948E030C948E030C948E03BC
:100080000C948E030C948E030C948E030C948E03AC
:100090000C948E030C948E030C948E030C948E039C
:1000A0000C948E030C948E030C948E030102E201D7
:1000B000013D0103E2002B0014001A0008001500A6
:1000C00017001C0018000C00120013002A004C003E
:1000D00004001600070009000A000B000D000E00C6
:1000E0000F0033003400E1001D001B000600190062
:1000F0000500110010003600370038002800E0002D
:100100000157E300E200AC5D2C002C00AD5D500017
:10011000510052004F002B0014001A000800150077
:1001200017001C0018000C00120013002A004C00DD
:1001300004001600070009000A000B000D000E0065
:100140000F0033003400E1001D001B000600190001
:100150000500110010003600370038002800E000CC
:100160000157E300E200AC5D2C002C00AD5D2D02D8
:100170002E002D002E022B0014001A00090013007F
:100180000A000D000F0018001C0033002A004C006C
:10019000040015001600170007000B0011000800EE
:1001A0000C0012003400E1001D001B0006001900C5
:1001B00005000E0010003600370038002800E0006F
:1001C0006400E300E200AC5D2C002C00AD5D50004B
:1001D000510052004F002B0014001A0009001300B8
:1001E00005000D000F0018001C0033002A004C0011
:1001F00004001500160017000A0010001100080086
:100200000C0012003400E1001D001B000600070076
:1002100019000E000B003600370038002800E000FF
:100220000157E300E200AC5D2C002C00AD5D5000F6
:10023000510052004F002B003400360037001300ED
:100240001C0009000A00060015000F002A004C00DF
:1002500004001200080018000C0007000B00170033
:10026000110016003800E100330014000D000E00EC
:100270001B00050010001A0019001D002800E000F6
:100280006400E300E200AC5D2C002C00AD5D50008A
:10029000510052004F002B0014001A0008001500F6
:1002A00017001C0018000C00120013002A004C005C
:1002B00004001600070009000A000B000D000E00E4
:1002C0000F0033003400E1001D001B000600190080
:1002D0000500110010003600370038002800E0004B
:1002E0000157E300E200AD5D2C002C00AC5D500036
:1002F000510052004F0035021E021F02200221024F
:100300002202230224022502260227022A002900B3
:1003100035004B004A000100320264022D002E021B
:100320002F0230023102E10000004E004D000100BA
:10033000010032002D022E002F0030000100E000ED
:100340000100010001000100010001000100510055
:10035000520050004F0035001E001F0020002100F9
:100360002200230024002500260027002A0029005F
:100370003A003B003C003D003E003F005C000100B5
:100380005E0001003100E1004000410042004300F6
:100390004400450001000100370001000100E000B9
:1003A0000100010001000100010001000100AB009B
:1003B000AA00A900AE001E001E001E001E001E00A6
:1003C0001E001E001E001E001E001E001E0000005B
:1003D00014001A000800150017001C0018000C007B
:1003E000120013002F00000004001600070009008F
:1003F0000A000B000D000E000F0033003400B05D4A
:1004000000000000060019000000000011001000AC
:100410000000000000000100005C015CC35CC45CE3
:10042000C65CC75CC85CC95CCA5CCB5C4C0029007C
:100430002900295C1D5C1E5C135C0A5CA65DA75D3F
:10044000AA5DAB5D010001002B5C2A5C265C275C89
:100450002C5C2D5CA95DAF5DA85D01000100010071
:100460000100010001000100010001000100010084
:1004700001000100010000000000000000002A2B24
:100480002800000000000000000000000000000044
:100490000029000000002C1E3420212224342627AD
:1004A000252E362D3738271E1F20212223242526CE
:1004B0003333362E37381F0405060708090A0B0C9C
:1004C0000D0E0F101112131415161718191A1B1CE4
:1004D0001D2F3130232D350405060708090A0B0CA2
:1004E0000D0E0F101112131415161718191A1B1CC4
:1004F0001D2F3130354C00000000000000000000CE
:1005000000000000000000000000000000000000EB
:10051000000000000000000000007E0F00D4FFFF7C
:10052000FFC7000000780E0343006F006E007400E8
:100530007200610000000E0343006100720074004D
:1005400065006C0000000403090409023B0002017D
:1005500000A0FA09040000010301010009211101B2
:1005600000012240000705810308000A0904010078
:10057000010300000009211101000122B600070556
:10058000820320000A120100020000000854430107
:100590000001000102000105010902A10185020913
:1005A00001A1000509190129081500250195087503
:1005B0000181020501093009311581257F950275F8
:1005C00008810609381581257F9501750881060582
:1005D0000C0A38021581257F950175088106C0C077
:1005E00005010980A101850319012AB7001501261B
:1005F000B700950175108100C0050C0901A10185A6
:100600000419012AA002150126A002950175108186
:1006100000C005010906A1018506050719E029E7C3
:10062000150025019508750181020507190029EFBC
:100630001500250195F075018102050819012905AC
:10064000950575019102950175039101C005010998
:1006500006A101050719E029E71500250195087590
:100660000181029501750881010507190029FF150F
:100670000026FF0095067508810005081901290567
:10068000950575019102950175039101C000112432
:100690001FBECFEFDAE0DEBFCDBF04B603FE27C03A
:1006A00080910A0390910B03A0910C03B0910D036C
:1006B0008730904BA740B04BD1F410920A031092B0
:1006C0000B0310920C0310920D0314BE84B7877FA6
:1006D00084BF0FB6F894A8958091600088618093DC
:1006E0006000109260000FBEE0E0F8E3099512E0B0
:1006F000A0E0B1E0ECE5FCE402C005900D92AC3066
:10070000B107D9F723E0ACE0B2E001C01D92AA30F6
:10071000B207E1F70E9478160C9404260C940000AE
:10072000CF93FB018B3A2DE5920709F470C0D8F402
:10073000873A2DE59207E9F150F4009709F48BC050
:10074000863A9D4571F1C1E08C2FCF910895883A8A
:100750002DE59207C1F18A3A9D45A9F7C28184E04F
:10076000CC2391F322C08E3A2DE5920709F445C0BF
:1007700050F48C3A2DE5920761F18D3A9D4519F7B9
:10078000C28187E028C08F3A2DE59207B9F0803BFF
:100790009D45C9F6C281CC23B9F288E00E94960B30
:1007A00006C0C28180E0CC2379F20E94E404C0E05C
:1007B000CBCFC281CC2341F282E0F7CFC28181E06E
:1007C000CC2311F2F2CFC28183E0CC2309F4BCCF59
:1007D000ECCFC28186E0CC2341F00E94750B49E04A
:1007E00067E086E00E945205E2CF0E94960B49E046
:1007F00067E086E00E945205A7CFC28185EECC2338
:1008000019F00E940C07D3CF0E949E079DCFC28192
:10081000CC2309F499CF87E00E94960B86E00E94D2
:10082000960B89E00E94960B88E00E94750B0E944F
:100830002A11811102C00E94D4110E94421190938A
:10084000E80280688093E7028091E7029091E802D5
:100850000E945011ACCFC281CC2309F475CF8CEA31
:1008600090E00E94B606A3CF9C013A9521153F4126
:1008700050F5FC01EE27F170BC0166277270AC01E7
:10088000442754709C012227387094FF0EC080E1E9
:10089000EF2B09F480E0672B09F08062452B09F00B
:1008A0008064232B89F08068089581E0EF2B09F4A0
:1008B00080E0672B09F08260452B09F08460232BD0
:1008C00019F08860089580E00895CF93DF93EC01DC
:1008D0000E9434049E01205E31092830310510F059
:1008E000209739F40E9413088C2FDF91CF910C943C
:1008F0000C070E94960AF8CFCF93DF93EC010E9479
:100900009E07CE010E9434049E01205E31092830EA
:10091000310510F0CD2B21F4DF91CF910C941A0802
:10092000DF91CF910C949D0A81E008950C9490037F
:1009300008950C9498041F93CF93DF9300D000D0B8
:100940000F92CDB7DEB749835A836B8330910E0285
:1009500089819A8131111DC06623B9F02223A9F043
:100960000E94650C182F682F89819A810E94110CB2
:1009700069817A81812F0F900F900F900F900F90C7
:10098000DF91CF911F910C94CC120E943D0C182F37
:10099000EFCF0E94650C69817A81EDCFFC01262F93
:1009A000408151816281738184810C949B0481E038
:1009B0000895CF93DF93EC0160E00E94CE04BE0166
:1009C000DF91CF910C949904CF92DF92EF92FF9236
:1009D000C12CD12C7601C39404C0CC0CDD1CEE1CC0
:1009E000FF1C8A95D2F78C2D0E943D11C701B601DC
:1009F000FF90EF90DF90CF900C94130B8F929F920B
:100A0000AF92BF92CF92DF92EF92FF920F931F931C
:100A10006B017C0181E090E0A0E0B0E04C015D0161
:100A200004C0880C991CAA1CBB1C4A95D2F7B501BE
:100A3000A4014C015D0104C0880C991CAA1CBB1CBC
:100A40002A95D2F7482959296A297B2904C0880F99
:100A5000991FAA1FBB1F0A95D2F78A019B010C217F
:100A60001D212E213F21041715072607370789F47A
:100A70008C299D29AE29BF29BC01CD011F910F9161
:100A8000FF90EF90DF90CF90BF90AF909F908F90AE
:100A9000089580959095A095B0958C219D21AE21CB
:100AA000BF21EACF0F93382F262F60912D0270912E
:100AB0002E0280912F0290913002042F432F0E942A
:100AC000FE040F910C944F0B0E94F3140E94C00679
:100AD0000C9418150E94561C0C941B1580E00C9465
:100AE000C106089508950E94BA0A0E9472052FEF68
:100AF00084E39CE0215080409040E1F700C000007A
:100B00000C94A81E0F931F93CF93DF938C0161E089
:100B10000E94CE04EC01B8010E94B21BB801CE01C4
:100B20000E9496048823D9F1B801CE010E94FB1BD4
:100B30008823A9F1B801CE010E94D01A882379F147
:100B4000B801CE010E941019882349F1B801CE01E5
:100B50000E943A1A882319F1F8018281882361F0F2
:100B6000CB35FDE5DF0721F170F4C115ECE5DE07BB
:100B7000A1F0CF3DDC45C9F0C801DF91CF911F91B5
:100B80000F910C949404CC358DE5D807A1F0CD35A8
:100B9000DD4591F70E941511EFCF0E94730580E0AB
:100BA000DF91CF911F910F9108950E94D411F7CF3B
:100BB0000E941E11E1CF0E942111DECF0C9471051D
:100BC0000E94B01C0E94C1060C94DE05DF92EF92D9
:100BD000FF920F931F93CF93DF93E82FF0E0EA5833
:100BE000FB4FD490282F26952695269530E0F901C5
:100BF000EA5EFA4F0491877010E0082E02C0159546
:100C000007950A94E2F701701127F901EA5FFA4F9C
:100C1000E490F12C082E02C0F594E7940A94E2F7D0
:100C200091E0E922FF24F901EA50FB4FC491D0E0A2
:100C300002C0D595C7958A95E2F7C170DD270115E9
:100C4000110519F081EE0E940C07E114F10419F06E
:100C500086EE0E940C078D2D0E940B08EF2819F0DC
:100C600086EE0E949E07012B19F081EE0E949E07DE
:100C7000CD2B51F08CE2DF91CF911F910F91FF901E
:100C8000EF90DF900C940B08DF91CF911F910F91A3
:100C9000FF90EF90DF900895EF92FF920F931F93D4
:100CA000CF93DF938C01F62E8AE0E82EF801849131
:100CB000882309F454C0813009F04DC0E801219621
:100CC000FE018491813091F42196FE0184910E946D
:100CD0000B088E010F5F1F4F8F2D815038F3EFE906
:100CE000FFE03197F1F700C00000F7CF823039F410
:100CF000E8012296FE0184910E940C07EACF83301E
:100D000039F4E8012296FE0184910E949E07E1CF0A
:100D10008430F9F6E8012296FE01249190E080E00B
:100D2000FE0131962053330B2A30310548F00197EC
:100D300080F2EFE9FFE03197F1F700C00000F7CF54
:100D4000E89EA001E99E500D1124C901840F951F52
:100D50002491EF01E5CF0E94E605E801BACFDF91CB
:100D6000CF911F910F91FF90EF90089560E00C9448
:100D70004C0608950C94B90681E008950C94BC06C5
:100D80000895CF93C82F0E94BA068C2FCF910C9450
:100D9000BE06CF93DF93CDB7DEB72B970FB6F8948F
:100DA000DEBF0FBECDBF4F83588769877A878B8799
:100DB00061110E9463101E821D8285E0FE0137963C
:100DC000DE01119601900D928A95E1F78C819D814B
:100DD000892B89F449815A816B817C818D819E8127
:100DE0000E94810F2B960FB6F894DEBF0FBECDBFC9
:100DF000DF91CF91089589819A8189238F3F51F3A3
:100E0000CE0101960E94D7048111E4CFEBCFFC0103
:100E1000808191810C94A70CCF93C82F882309F46B
:100E20008BC08238C1F40E94B01C81FD85C089E36B
:100E30000E941B100E9493102FEF81EE94E021502E
:100E400080409040E1F700C0000089E30E9422103A
:100E5000CF910C9493108338A1F40E94B01C80FDB4
:100E60006BC083E50E941B100E9493102FEF81EE50
:100E700094E0215080409040E1F700C0000083E5FD
:100E8000E5CF8438A1F40E94B01C82FD55C087E4F0
:100E90000E941B100E9493102FEF81EE94E02150CE
:100EA00080409040E1F700C0000087E4CFCF8CEF96
:100EB0008C0F813A90F46C2F809180019091810188
:100EC0000E94241D882329F08C2F0E9422100E944A
:100ED00093108C2F0E941B10BBCF80E28C0F8830A8
:100EE00048F4C77081E001C0880FCA95EAF70E94F4
:100EF0004310AECFEBE5EC0FE33040F4F0E0E95304
:100F0000FE4F808190E0CF910C94E41CE8E5EC0F5B
:100F1000E73150F4F0E0EE0FFF1FE756FE4F8081FF
:100F20009181CF910C94FA1CCD3E30F08C2F0E9411
:100F30000817CF910C94DB17CF910895882309F4FB
:100F400052C0823871F40E94B01C81FF4CC089E30A
:100F50000E941B100E94931089E30E9422100C949F
:100F60009310833859F40E94B01C80FF3CC083E585
:100F70000E941B100E94931083E5EFCF843859F430
:100F80000E94B01C82FF2FC087E40E941B100E94A9
:100F9000931087E4E2CF9CEF980F913AF0F290E241
:100FA000980F983050F4877091E001C0990F8A959E
:100FB000EAF7892F0E944910D2CF9BE5980F933012
:100FC00020F490E080E00C94E41C98E5980F9731B1
:100FD00020F490E080E00C94FA1C8D3E20F00E94FA
:100FE00062170C94DB1708951F93CF93DF93182F8C
:100FF000EB010E940C07209731F4812FDF91CF91F4
:101000001F910C949E078FE99FE00197F1F700C0B4
:1010100000002197F0CF70E060E0893311F460E5C3
:1010200070E00C94F407882321F00E9443100C9484
:1010300093100895882321F00E9449100C94931076
:101040000895BF92CF92DF92EF92FF920F931F937A
:10105000CF93DF936C01D62FC72FFC011281F5804F
:10106000F2949FE0F9220E943910E82E8823B9F00B
:10107000E12E1123A1F08C2F807F803421F080E2BB
:101080008D0F8830B0F08091E80282FD12C082E0BE
:101090000E94E4100E94391091E0E82EE926BC2E4F
:1010A000B2948FE0B822EB2DF0E0EA5FF94D0C949A
:1010B0009B25E12CF4CF0C2F0F70C07F11F002950F
:1010C000007F112399F0002359F080E28D0F8830C2
:1010D00010F0D11107C0802F0E9443100E9493107E
:1010E0008D2F41C0802F0E945610F8CF8D2F0E9467
:1010F0009E07002309F43FC080E28D0F883010F076
:10110000D11104C0802F0E94491003C0802F0E947B
:101110005C100E9493102FC00C2F0F70C07FC03244
:1011200011F00295007FDD2381F0D13009F469C010
:10113000112309F473C0FF2009F469C0F601858109
:1011400080FFCECF8F70858362C08091E80282FFDE
:1011500038C0112359F0002329F0802F0E9443103A
:101160000E94931080E00E940C0705C080E00E945E
:101170009E070111C7CFEB2DE850FF0B349720F4E9
:101180000E94B01C0E94C106EE2009F482C10E9498
:10119000351080FD7EC1F60112820E942F100E9440
:1011A000750BC6010E946A0A0E942F10DF91CF9131
:1011B0001F910F91FF90EF90DF90CF90BF900C9414
:1011C000960B112389F0F11006C00E947610802B37
:1011D0000E941308D0CFF1E0FF12F7CF0E947610E3
:1011E000802B0E947C10C7CFF11006C00E9489108E
:1011F000802F0E941A08BFCF21E0F21609F4BBCF5E
:10120000F5CF112331F035E03F1508F4B4CF802F2E
:10121000DFCF84E08F1508F4AECFEACFFF2041F393
:10122000D93349F4FFEF27EE33E0F150204030404E
:10123000E1F700C000008D2F0E949E079CCF8C2FED
:1012400086958695837069F0813009F094CF8D2F53
:101250009C2F9370111102C090E080E00E94FA1C54
:101260008ACF8D2F9C2F9370111102C090E080E0E7
:101270000E94E41C80CF8D2F112329F00E940817B3
:101280000E94DB1778CF0E946217FACF8C2F8370F1
:1012900009F041C011116FCF4D2F4295469547700F
:1012A000440F440F0D2F0F7010E030E020E0042EAB
:1012B00004C0000F111F221F331F0A94D2F760E0F1
:1012C00070E0CB01D4FF0FC06FE070E080E090E0F1
:1012D00004C0660F771F881F991F4A95D2F7609543
:1012E000709580959095C695C695C370602B712BAF
:1012F000822B932BC23049F058F4C13019F00E9470
:10130000270B39CF0E94150B36CF0E94390B33CFF4
:101310000E94130B30CF8695112311F08C2F817012
:10132000882309F428CF4D2F429546954770440FE6
:10133000440F0D2F0F7010E030E020E0042E04C0A9
:10134000000F111F221F331F0A94D2F760E070E0D4
:10135000CB01D4FF0FC06FE070E080E090E004C0EC
:10136000660F771F881F991F4A95D2F76095709571
:1013700080959095C695C695C370602B712B822B76
:10138000932BC23049F058F4C13019F00E94EC0B95
:10139000F2CE0E94DA0BEFCE0E94FE0BECCE0E9442
:1013A0004F0BE9CECF70112329F08C2F0E94750BC3
:1013B0008D2F0ECF8D2F0E941A088C2F0E94960B16
:1013C000DACED23F51F160F4D03FB9F0D13F81F095
:1013D000112309F449C0F11083CE8C2F8F7121C0E5
:1013E000D33F11F1D43FA1F78091E80282FF26C0DC
:1013F0008C2F8F71112311F314C0112349F084E055
:101400008F1508F4B8CE8C2F8F710E94B90BB3CE14
:1014100095E09F1508F4AFCEF6CF8C2F8F71111188
:10142000CDCF0E94750BA7CE112329F08C2F8F7181
:101430000E94600BA0CE0E945B0B9DCE112349F051
:10144000CF718C2F0E94750B63E08C2F0E94C91006
:1014500092CE81E00E94E410E1E0EF1508F08BCE1F
:1014600082E00E94E41087CEF110DACE8C2F8F71CB
:10147000A5CF4C2F4F706D2FC6010E94C8120E943D
:10148000D50C79CE4C2F4F706D2FC6010E94CB1218
:1014900072CEDF91CF911F910F91FF90EF90DF906F
:1014A000CF90BF9008950F931F93CF93DF93EC01DC
:1014B000688179818A810E94B10C8C010E94100C94
:1014C0000E94120BB801CE01DF91CF911F910F91B5
:1014D0000C942108CF93DF93EC018B819C81892BA5
:1014E00029F08881998189238F3F59F4DF91CF9129
:1014F0000895CE010E94530ACE01DF91CF910C9442
:10150000D904CE010E9482058111F3CF0E943910C7
:10151000882361F38A81882349F38091E80282FD60
:10152000E5CF82E0DF91CF910C94E410882321F085
:101530000E9456100C9493100895882321F00E9465
:101540005C100C949310089590E080E00E94E41CDD
:1015500090E080E00E94FA1C0E9463100E947310C9
:101560000E9493100E9402190C94DB170E9429100C
:101570000C94A40A0E9450100C94B60AE92FE2952C
:10158000EF70E250EE3070F4F0E0EA5EF94D0C944A
:101590009B25803F19F020F4883E20F481E00895D7
:1015A000843FE1F380E00895883EC0F3813FD1F7A6
:1015B000F5CF93FB882780F90895FC018081918104
:1015C0000E94A70C0C94BE0ACF93DF9300D000D0EA
:1015D0000F92CDB7DEB70F900F900F900F900F9036
:1015E000DF91CF910895CF93DF9300D000D000D04A
:1015F000CDB7DEB726960FB6F894DEBF0FBECDBFCF
:10160000DF91CF91089508950C94030B0E94040B71
:1016100060933102709332028093330290933402CC
:101620000C94A40A08950C94060B0F931F93009139
:101630003102109132022091330230913402602B3A
:10164000712B822B932B1F910F910C94060B0F93F0
:101650001F93009131021091320220913302309198
:10166000340260237123822393231F910F910C94E2
:10167000060B0F931F9300913102109132022091BB
:1016800033023091340260277127822793271F91FC
:101690000F910C94060B0C94030B0C944B0B0E94B3
:1016A0004D0B60932D0270932E0280932F02909326
:1016B00030020C94A40A60E070E0CB010C944F0B54
:1016C0000F931F9341E050E060E070E08A019B01BE
:1016D00004C0000F111F221F331F8A95D2F7C901C2
:1016E000B8011F910F910C944F0B0F931F9341E082
:1016F00050E060E070E004C0440F551F661F771F84
:101700008A95D2F780912D0290912E02A0912F02FE
:10171000B09130028A019B01082B192B2A2B3B2BFD
:10172000C901B8011F910F910C944F0B0F931F9398
:1017300041E050E060E070E004C0440F551F661FB8
:10174000771F8A95D2F7CB01BA0160957095809585
:10175000909500912D0210912E0220912F02309130
:10176000300260237123822393231F910F910C94E5
:101770004F0B0F931F9341E050E060E070E004C016
:10178000440F551F661F771F8A95D2F780912D024F
:1017900090912E02A0912F02B09130028A019B01FC
:1017A000082719272A273B27C901B8011F910F9144
:1017B0000C944F0B0F931F9300912D0210912E024A
:1017C00020912F0230913002602B712B822B932BB2
:1017D0001F910F910C944F0B0F931F9300912D02AB
:1017E00010912E0220912F0230913002602371233C
:1017F000822393231F910F910C944F0B0F931F93F0
:1018000000912D0210912E0220912F023091300272
:1018100060277127822793271F910F910C944F0BFC
:1018200008952CE0929F800D1124982F977041E02D
:1018300001C0440F9A95EAF786958695869595E0BE
:10184000899FF0011124E15FFD4F90E080E070E09E
:101850005191DF0111979B01082E02C03695279503
:101860000A94E2F7217021952527242325272C931C
:1018700001968530910561F708952CE0929F800DC7
:101880001124982F977086958695869525E0829FDE
:10189000F0011124E15FFD4F50E040E080E0219134
:1018A00030E0092E02C0369527950A94E2F72170A0
:1018B0003327042E01C0220F0A94EAF7822B4F5FD0
:1018C0005F4F4530510559F70895BF92CF92DF928F
:1018D000EF92FF920F931F93CF93DF938C01C090F1
:1018E0002D02D0902E02E0902F02F09030028091D5
:1018F000310290913202A0913302B0913402C82A91
:10190000D92AEA2AFB2ACFE1D0E0BC2ED701C601B2
:101910000C2E04C0B695A795979587950A94D2F793
:1019200080FD0EC0219788F7B12C8B2DDF91CF91D0
:101930001F910F91FF90EF90DF90CF90BF9008958F
:10194000B8018C2F0E94FB13019761F3EECFCF9368
:10195000DF93EC010E94650CBE01DF91CF910C94E6
:10196000FB131F93CF93DF93EB0190910E0299230A
:1019700031F0CB01DF91CF911F910C94A70C8823FC
:1019800079F0CB010E94650C182F682FCE010E94C0
:10199000110CBE01812FDF91CF911F910C94FB138D
:1019A000CB010E943D0C182FF4CFEF92FF920F93C2
:1019B0001F93CF93DF938C01892B81F0F12CEE24C0
:1019C000E394E8012196F8018491843770F484301F
:1019D00008F05FC08130B1F08230A1F1DF91CF918A
:1019E0001F910F91FF90EF900895853709F44CC037
:1019F00008F43DC09CE7980F903780F78F770E94DE
:101A00009E0749C00E5F1F4FFE01849190E2980F20
:101A1000983060F48770FE2D01C0FF0F8A95EAF7B9
:101A20008F2F0E9466100E94931002C00E940C0724
:101A30008F2D815030F2EFE9FFE03197F1F700C0D0
:101A40000000F7CF0E5F1F4FFE01849190E2980FC8
:101A5000983050F48770FE2D01C0FF0F8A95EAF789
:101A60008F2F0E946C10DFCF0E949E07E1CF0E5F88
:101A70001F4FFE01C491C150D8F28FE99FE001973A
:101A8000F1F700C00000F7CF0E5F1F4FFE01F4908A
:101A9000CFCF0E940C078E01CBCF1F93CF93DF9344
:101AA000C091350216E0809136028C1304C0DF919C
:101AB000CF911F910895D0E01C9FF0011D9FF00D64
:101AC0001124E95CFD4F40815181628173818481E1
:101AD00095810E94F30A2196C770E5CF4091670275
:101AE000509168026091690270916A0280916B0264
:101AF00090916C020C94F30AFF920F931F93CF9373
:101B0000DF9380916C02807FD1F4809169028823F9
:101B1000B1F08091350210913602609167027091A8
:101B20006802A0916A02B0916B02062F0723C09150
:101B30007E01D0917F0196E0F92E181306C0DF9147
:101B4000CF911F910F91FF90089590E0109711F0A1
:101B50000F3F19F401968770F0CFF89E9001F99E1F
:101B6000300D1124F901E95CFD4F41814713F2CF9B
:101B700040814613EFCF42814111ECCF4381548124
:101B80004A1B5B0B4C175D0728F780916C028F7026
:101B9000806180936C02F901E45CFD4F80818F705D
:101BA0008061808387E692E00E946A0ADF91CF918C
:101BB0001F910F91FF900C944D0DAF92BF92CF9259
:101BC000DF92EF92FF920F931F93CF93DF93CDB7E6
:101BD000DEB761970FB6F894DEBF0FBECDBF8C01A4
:101BE00085E0F801DE011D9601900D928A95E1F7DE
:101BF000F801E28087E6C82E82E0D82E60916A0262
:101C000070916B026115710509F45FC190916702D3
:101C100020916802892F82238F3F09F456C14081A9
:101C20005181A380B480F0906902F501E61BF70BA7
:101C3000BF01E0917E01F0917F01FF2009F4F6C021
:101C400080916C02382F307F6E177F0708F0AFC08D
:101C5000311179C0FE2C251323C0941321C0E1104B
:101C60001FC08F70806180936C020E946E0DC60150
:101C70000E946A0A80916C02F80185838F2D61961B
:101C80000FB6F894DEBF0FBECDBFDF91CF911F918D
:101C90000F91FF90EF90DF90CF90BF90AF9008959D
:101CA000AB2829F0842F85238F3F09F027C180E0DE
:101CB000F82FF170DF2E80FF3CC08091350220911B
:101CC000360236E0821315C04D875E878D859E856E
:101CD0000E94A70C292F22952F702230F0F024307B
:101CE00018F59F70F1F0F8019581907FD1F4D12C17
:101CF0001EC090E0389FF001399FF00D1124E95C7F
:101D0000FD4F6181651306C06081641303C0628169
:101D10006E110FC001968770D5CF9F7011F0882388
:101D200031F3805E883018F3C8010E946A0AFD2CE6
:101D3000A5CFEE2009F4A2CF80916C028160809340
:101D40006C02F12C9BCF251306C0941304C0F8013C
:101D5000EE2009F487C0C8010E94DD0A882319F12A
:101D6000EE2009F180916C02803270F020916702C0
:101D70003091680238872F831986BB86AA868C87A4
:101D8000CE0107960E946A0A86E0F801A7E6B2E053
:101D900001900D928A95E1F70E947C0D0E946E0DD4
:101DA000FF24F3946BCFC8010E946A0AF9CF311166
:101DB00013C07A2DB98AA88A6E2D89890E94E40AF7
:101DC00087E692E00E946A0A86E0F60111928A95FF
:101DD000E9F70E946E0DB5CF25130FC094130DC007
:101DE000E1100BC0F8018583C8010E946A0A86E0F1
:101DF000F60111928A95E9F741CFC8010E94DD0AE8
:101E0000882389F2EE2079F280916C02803208F406
:101E1000BBCF20916702309168023A8329831B82ED
:101E2000BD82AC828E83CE010196ACCF6E177F0748
:101E300008F03EC0FE2CEE2009F4B5CF25132AC0D1
:101E4000941328C080916C0280FD1BC0982F907F56
:101E5000C1F0F8018583903F31F0982F907F905F1B
:101E60008F70892B8583C8010E946A0A86E0F80179
:101E7000A7E6B2E001900D928A95E1F70E946E0DFF
:101E8000FDCE86E0F801A7E6B2E001900D928A95BA
:101E9000E1F7F4CEC8010E94DD0A811175CF80916F
:101EA0006C02816080936C02C8010E946A0AE6CECF
:101EB0007A2DB98AA88A6E2D89890E94E40A86E063
:101EC000F60111928A95E9F7D9CFEE2009F46BCF8C
:101ED000C8010E94DD0AF82E882309F464CF86E049
:101EE000F801A7E6B2E001900D928A95E1F787E646
:101EF00092E00E9407070E947C0DC0CF81E08E25F2
:101F0000D7CE1F93CF93DF93CDB7DEB72C970FB605
:101F1000F894DEBF0FBECDBF4F83588769877A879D
:101F20008B879C87CE0107960E94DD0D882369F080
:101F30008A859B85892B39F04F815885842F85238D
:101F40008F3F09F071C016E05FC086E0FE01379652
:101F5000DE01119601900D928A95E1F78A859B85A5
:101F6000892B89F38F81988589238F3F61F3209195
:101F7000360230E0C90101968770992740913502F9
:101F80004817190671F40E94BA0A1092360210928C
:101F9000350286E0E7E6F2E0DF011D928A95E9F777
:101FA000D2CF96E0929FD001939FB00D1124A95CEF
:101FB000BD4FFE01319601900D929A95E1F7809305
:101FC00036020E944D0DBFCF819FC0011124895C54
:101FD0009D4F0E94DD0D8823E9F0E09135021E9FA0
:101FE000F0011124E95CFD4F4081518162817381D0
:101FF000848195810E94F30A8091350290E00196D8
:10200000877099278093350280913502909136022E
:102010008913DACF2C960FB6F894DEBF0FBECDBF72
:10202000DF91CF911F91089569857A858B859C8575
:102030000E94F30A88CF682F8091800190918101DE
:102040000C94A41D682F80918001909181010C94C3
:10205000AF1D80918001909181010C94BA1D8091F7
:102060006D02859585958595089580916D0287709F
:10207000089590916D02977081E009F480E00895D1
:1020800080919102089590919102892B8093910201
:1020900008958095909191029823909391020895CC
:1020A000109291020895809190020895909190026B
:1020B000892B8093900208958095909190029823A7
:1020C00090939002089510929002089590918F023B
:1020D000892B80938F020895809590918F02982389
:1020E00090938F02089510928F02089580916E024E
:1020F000089508950C9479109091E80292FD08C01B
:1021000090916E02981721F080936E020C947A10D1
:10211000089580916E02882329F010926E0280E06B
:102120000C947A100895E0918001F09181018091E2
:1021300091028083E0918001F091810180819091F2
:102140009002892B8083E0918001F0918101808150
:1021500090918F02892B808390916E02992381F058
:10216000E0918001F09181018081892B80838091B1
:102170008001909181010E94101D81110E9489109F
:1021800080918001909181010C94BC1C08950C9465
:10219000C6109091E80292FD10C098E0899F9001CE
:1021A0001124622B60936D020E94750B80916D0269
:1021B0008595859585950C94C7100C94750B109298
:1021C0006D0280E00C94C71090916D028095892378
:1021D00080936D02282F277091F4282F082E000C71
:1021E000330B9217130659F09091E80292FD07C045
:1021F0008595859585950E94960B0C94DF10089522
:102200009091E80292FB222720F9281769F080FBC1
:1022100092F99093E8028091E7029091E8020E947F
:10222000501182E00C94E41008958091E80282FB42
:10223000882780F991E089270C94001181E00C94A3
:10224000001180E00C9400116FEF7FEF90E080E0D0
:102250000C94EE2590E080E00E94CA2521E0893EA2
:102260009E4F09F020E0822F089582E090E00C94C8
:10227000C22583E090E00C94C225682F83E090E0B3
:102280000C94D025CF9384E090E00E94C225C82F03
:1022900082E290E00E94C225982F8C2FCF91089562
:1022A000CF93C92F682F84E090E00E94D0256C2F37
:1022B00082E290E0CF910C94D025AB01BC018FE07D
:1022C00090E00C94E225AB01BC0183E190E00C941A
:1022D000E22560E070E0CB010C94631160E070E0F7
:1022E000CB010E945D110C94691169EE7EEF90E0C4
:1022F00080E00E94EE2560E082E090E00E94D02520
:1023000060E083E090E00E94D025109231021092AC
:102310003202109233021092340260E084E090E0C6
:102320000E94D02560E082E290E00E94D02560E02B
:1023300085E090E00E94D02560E086E090E00E9479
:10234000D0256FEF87E090E00E94D02540E050E07C
:10235000BA0188E090E00E94E22560E08DE090E024
:102360000E94D02540E050E0BA0188E190E00E9450
:10237000E22560E087E190E00E94D02540E050E057
:10238000BA018CE190E00E94E22570E060E080E21A
:1023900090E00E94EE2540E050E0BA0188E190E034
:1023A0000E94E2250C946E110C947511682F8EE03A
:1023B00090E00C94D0250E94691E60939F02709358
:1023C000A0028093A1029093A20260939B0270935B
:1023D0009C0280939D0290939E02089585B7806829
:1023E00085BF85B7806885BF0895089508950C94CA
:1023F000F51108950C94F9110E94EE1189ED94E104
:102400000E94A61C0E94F6110C94F71181E0089519
:102410000C940612089508950E940A120C940B124F
:102420000E94541E0E94D2150C94FA118F929F9212
:10243000AF92BF92CF92DF92EF92FF920F931F93D2
:10244000CF93DF93CDB7DEB72A970FB6F894DEBFF0
:102450000FBECDBF0E94E71581110E94DB1153E929
:10246000852E52E0952E10E000E0A02E802F0E94D5
:102470001D156C01F401E190F1904F01E816F90689
:1024800009F45CC08091A30281FD0E942615C7015A
:102490008C259D25B12CEE24E394F12C9C012E215A
:1024A0003F21232B09F444C00E9408128823A9F07D
:1024B000BE82AF82CE20DF2081E0CD2809F480E00B
:1024C00088870E945D1E8160782F9A8789874E8158
:1024D0005F8168858A850E94C906000F111FF80177
:1024E000ED56FD4F80819181E826F926F182E08248
:1024F0000E94F6170E94B01C909192028917A9F1D0
:102500000E94B01C809392022A960FB6F894DEBF08
:102510000FBECDBFDF91CF911F910F91FF90EF9034
:10252000DF90CF90BF90AF909F908F900C94C1069A
:10253000B394EE0CFF1CFCE0BF12B0CF0F5F1F4F37
:102540000430110509F091CF8FEF89838A831B82B4
:102550000E945D1E8160782F9D838C8349815A8102
:102560006B818D810E94C906C3CF2A960FB6F8945D
:10257000DEBF0FBECDBFDF91CF911F910F91FF90B6
:10258000EF90DF90CF90BF90AF909F908F90089585
:1025900090E080E008950895972F70E02CE0929FDE
:1025A000600D711D1124FB0190E3899FE00DF11D69
:1025B0001124EE0FFF1FEA54FF4F85919491089567
:1025C000FC01EE0FFF1FEA5DFA4F8591949108958B
:1025D000CF93DF930E94FF13EC01811520E5920752
:1025E00008F042C0811530E4930708F0BDC0883E72
:1025F000910528F5803E910508F09DC0883A910527
:1026000088F4853A910508F08FC08130910509F46E
:1026100092C0009709F48FC0049708F08CC0D0E0F6
:10262000C0E089C08F3B910508F489C0805C9109A6
:10263000C03CD105A0F30E94E012EC017CC08115E2
:10264000904250F4C11581E0D80708F074C0CD3E27
:10265000D10528F3D0656FC0C11590E3D90708F004
:1026600079C0CE019F70E7CF811525E5920758F517
:10267000811534E5930708F0A6C0811542E594075B
:1026800050F4C11581E5D80708F471C0DC2FCC27C0
:10269000C16FD06A50C0982F969596959E01237071
:1026A0003327C115D34508F07FC0C1E0D0E002C098
:1026B000CC0FDD1F2A95E2F720E2929FC001112482
:1026C000C82BD92B6FC0C11589E5D807A8F4C1154F
:1026D00098E5D90708F07CC0C11526E5D20708F0B7
:1026E0009ECF8C2F0E949614C82FD0E0DC2FCC27D1
:1026F000CC27DF71D0621FC0C1153AE5D30708F4BB
:102700006CC0CE0190568115904208F088CF8D2F75
:102710008F710E94961490E0982F882788279F71C8
:102720009C012C2BE901E6CFC55AD0E0C850DE4F02
:10273000C881D0E0D064CE01DF91CF910895C85A0E
:10274000D0E0CC0FDD1FC653DE4F0990D881C02DDD
:10275000D464F1CFCE019927D3FF03C0EC01D86C2C
:10276000EACFEC01D06CE7CFDF70D06AE4CFCE01C6
:10277000E4E096958795EA95E1F783702C2F2695EE
:102780002695237090E2299F90011124382B8C2FDD
:102790008370C1E0D0E002C0CC0FDD1F8A95E2F764
:1027A000C22BD32BDC68C7CFC1E0D0E002C0CC0F76
:1027B000DD1F2A95E2F730E2939FC0011124C82B58
:1027C000D92BDA68B8CFD82FCC27C46FD06AB3CF53
:1027D000DC2FCC27C06FD06AAECF8C2F8F700E94B9
:1027E000961434E0D695C7953A95E1F7CF709C2FB3
:1027F000EC01D069A0CF0E94CC120C94E812823870
:102800009105B1F1B0F48133910509F475C048F434
:102810008932910509F469C08A32910509F473C0BF
:1028200008958533910509F459C08933910501F163
:102830000895833E9105A9F138F4803E9105F9F0A1
:10284000823E910549F10895863E9105A9F1873EA2
:102850009105C9F1843E910519F52091E80221FF07
:102860001FC08091E70284FD14C087EE90E00895B8
:102870002091E7022370A1F080EE90E0089520916E
:10288000E70220FD47C03091E80230FF09C024FF75
:1028900044C090E080E004C02091E70222FDF7CF21
:1028A00008952091E70222FD3BC03091E80230FDFF
:1028B000E3CF24FFF5CFEDCF2091E70223FFF0CF48
:1028C00024FDE7CFD2CF2091E70223FD2CC0309129
:1028D000E80231FFEECF84EE90E008952091E70208
:1028E00025FFDECF89E290E008952091E70225FFE1
:1028F000D7CF85E390E008952091E70226FFD0CF5F
:102900008AE290E008952091E70226FFC9CF81E393
:1029100090E0089589E390E0089583EE90E00895B3
:1029200082EE90E0089586EE90E008959091E7029F
:1029300092FF06C0282F28712830F9F4877F846021
:1029400093FF06C0282F28712831F1F4877E846117
:102950002091E80220FF06C0382F38713830D9F4B2
:10296000877F816021FF06C0282F28712831D1F48C
:10297000877E816194FD877E0895282F24712430FD
:10298000F9F68B7F8860DCCF282F2471243101F782
:102990008B7E8861DDCF382F3171313019F78E7F12
:1029A0008860E0CF282F2171213121F78E7E886148
:1029B000E1CF80E008950C9424110E94E7158FE385
:1029C0009CE90197F1F700C000000E94E71580E044
:1029D0000E941D1580FF04C00E94DB140C94A81EE9
:1029E00008950C94DD140E942A11811102C00E94E6
:1029F000D4110E9435118093A3020E94421190933A
:102A0000E8028093E7020E94F1140E943911682FB6
:102A100070E090E080E00E94130B60912D027091B5
:102A20002E0280912F02909130020C944D0B08954C
:102A30000C94171508950C941A15E82FF0E0EE0F7A
:102A4000FF1FEF50FD4F808191810895089580EA26
:102A50008A95F1F7089500C008950C942715F8940D
:102A6000E82FE295EF70F0E031A1282F2F7081E080
:102A700090E001C0880F2A95EAF7982F909593234C
:102A800091A392A1892B82A378940895CF93DF9389
:102A900086EF0E942F1583E30E942F1582E30E9488
:102AA0002F1586E30E942F15CBEFD1E089918F3F40
:102AB00011F00E942F1582E0C730D807B9F7DF91D7
:102AC000CF910895AF92BF92DF92EF92FF920F9352
:102AD0001F93CF93DF938C01D62EC62FD0E0CE016B
:102AE000895F9D4F7C01FC0120812F3F09F44DC07F
:102AF000F894E22FE295EF70F0E031A12F7081E0C1
:102B000090E001C0880F2A95EAF7932F982B91A3A4
:102B100092A18095892382A378940E942B15EBEFD4
:102B2000F1E047E052E021E030E0B12CA12C6191CE
:102B30006F3FA9F1A62FA295AF70B0E090968C914F
:102B400090E06F7002C0959587956A95E2F780FDD9
:102B500026C0C901A82AB92A220F331F4E175F07C2
:102B600031F7F70180818F3F11F00E942F1561E04E
:102B7000A114B10409F460E08D2D0E942D15CC0F35
:102B8000DD1FC00FD11FB982A882DF91CF911F91A5
:102B90000F91FF90EF90DF90BF90AF90089590E07D
:102BA00080E0D8CF0E94461588E0E1EFF2E0DF0137
:102BB000982F1D929A95E9F7E9EEF2E0DF011D9258
:102BC0008A95E9F784E00E9432160C946405FF921E
:102BD0000F931F93CF93DF93CDB7DEB728970FB630
:102BE000F894DEBF0FBECDBF8E010F5F1F4F88E090
:102BF000F80111928A95E9F7F12C6F2DC8010E9416
:102C00006215F394F4E0FF12F8CF48E050E0B80109
:102C100089EE92E00E94B525FF24F394009709F411
:102C2000F12C892B41F088E0F801A9EEB2E0019087
:102C30000D928A95E1F72F2D44E061EF72E089EE65
:102C400092E00E9433160E946A058F2D28960FB6D7
:102C5000F894DEBF0FBECDBFDF91CF911F910F91D2
:102C6000FF9008950895FF920F931F93CF93DF93E2
:102C7000F82E092F162FD72FC42F222349F081E0D9
:102C80008093A6020E945D1E9093A5028093A402E9
:102C90008091A6028823A1F08091A4029091A502C0
:102CA0000E94751E059760F0EF2DF02FA12FBD2F0C
:102CB00090E080E0D0E08C179D0744F01092A602CF
:102CC000DF91CF911F910F91FF9008952191319144
:102CD0002D933D930196EFCF0E945B200E9410122E
:102CE0000C9467200E946B200E9416120C94852081
:102CF0000E94E61D0E9442200E94FC110E946C1658
:102D00000E9472160E940C12FBCF8091AD0280FFD0
:102D100012C06091870185E0689FB001112475950C
:102D200067957595679560387105A8F5611571050A
:102D3000A1F1862F089581FF09C06091870185E088
:102D4000689FB001112475956795EDCF609187015B
:102D500082FD0AC08091AC028823D1F09091860157
:102D600060918701891728F085E0689FB0011124E0
:102D7000DACF869FB001112485E0869F9001879F5E
:102D8000300D1124692F70E0C9010E948725CBCF37
:102D900065E070E0CECF8FE7089581E008958091DF
:102DA000AD0280FF0CC06091830170E0759567955E
:102DB000759567956115710549F1862F089581FF15
:102DC00006C06091830170E075956795F3CF6091BF
:102DD000830182FD0BC09091AB029923A1F0609119
:102DE000820180918301961738F0682F70E0603877
:102DF000710500F38FE70895899FC001112470E0E9
:102E00000E948725F4CF61E070E0D7CF81E008957C
:102E10008D3E31F40E94851681958093B10208950C
:102E20008E3E19F40E948516F8CF8F3E31F40E9431
:102E3000851681958093B0020895803F19F40E9411
:102E40008516F8CF893F29F40E94CF168093B202ED
:102E500008958A3F21F40E94CF168195F7CF8B3FCA
:102E600031F40E94CF1681958093B30208958C3F70
:102E700019F40E94CF16F8CF9FE0980F983070F4A5
:102E8000815F990B21E030E001C0220F8A95EAF7BB
:102E90008091AF02822B8093AF0208958D3F31F471
:102EA0008091AD0281608093AD0208958E3F21F440
:102EB0008091AD028260F7CF8F3FB9F78091AD026C
:102EC0008460F1CF4091B0028D3E59F48091B102FF
:102ED00087FF0DC01092B10241110BC01092AC02DD
:102EE00008C08E3E81F48091B10218169CF34423F1
:102EF00081F08091B2029091B302892B09F05AC0FF
:102F00001092AB0208958F3E49F447FFF0CF109224
:102F1000B0028091B1028111ECCFE0CF803F19F473
:102F20001416ACF3E4CF9091B202893F29F419163C
:102F3000F4F61092B202DBCF8A3F19F497FFD7CF95
:102F4000F8CF9091B3028B3F29F497FFD0CF109226
:102F5000B302CDCF8C3F19F41916CCF3C8CF9FE044
:102F6000980F983090F4815F990B21E030E0B9011F
:102F700002C0660F771F8A95E2F7CB01809590918A
:102F8000AF0289238093AF02B2CF8D3F31F480919D
:102F9000AD028E7F8093AD02AACF8E3F21F4809147
:102FA000AD028D7FF7CF8F3F09F0A1CF8091AD02A9
:102FB0008B7FF0CF08950E945D1E9C019091B0021E
:102FC0008091B102982B21F03093AA022093A9029C
:102FD0009091B2028091B302982B21F03093A80215
:102FE0002093A7028EEA92E00C94D61CEF92FF92F7
:102FF0000F931F93CF93DF9300D000D000D0CDB7B5
:10300000DEB786E0EEEAF2E0DE01119601900D9265
:103010008A95E1F7E090B002F090B1020091B2021F
:103020001091B3021092B0021092B1021092B2024B
:103030001092B3028E2D8F2991F08091A902909168
:10304000AA020E94751EAC019091AC02992309F46A
:103050003FC0809188018417150608F447C0802F6F
:10306000812B91F08091A7029091A8020E94751E79
:10307000AC019091AB02992309F477C0809184014F
:103080008417150608F47FC08091B0029091B102B8
:10309000892B9091B202892B9091B302892B11F068
:1030A0000E94DB1786E0FE013196AEEAB2E00190A5
:1030B0000D928A95E1F726960FB6F894DEBF0FBE03
:1030C000CDBFDF91CF911F910F91FF90EF900895A9
:1030D000209189018AE0289F900111242417350747
:1030E00008F0BDCF9F5F9093AC0202C09F3FD1F725
:1030F000EE2059F00E9485169FEF1E140CF491E00B
:10310000899F802D11248093B002FF2059F00E94E6
:1031100085169FEF1F140CF491E0899F802D1124D8
:103120008093B1023091B002332309F498CF2091FB
:10313000B102222309F493CF45EB3403C0011124DB
:10314000992359F09093B00245EB24039001112488
:10315000332339F03093B10282CF81E08093B00203
:10316000F3CF81E08093B1027ACF209185018AE08C
:10317000289F900111242417350708F085CF9F5F01
:103180009093AB0202C09F3FD1F7002359F00E94F9
:10319000CF169FEF10160CF491E0899F802D11241B
:1031A0008093B202112359F00E94CF169FEF11169F
:1031B0000CF491E0899F802D11248093B30230910B
:1031C000B202332309F460CF2091B302222309F421
:1031D0005BCF45EB3403C0011124992359F0909340
:1031E000B20245EB240390011124332339F03093CC
:1031F000B3024ACF81E08093B202F3CF81E08093A3
:10320000B30242CF86E0EEEAF2E0DF011D928A953A
:10321000E9F71092AC021092AB021092AD02089541
:10322000CF93DF93EC01FB018281882309F420C155
:10323000C430FDE5DF07C8F5CB3F9CE5D90730F486
:103240009E0122503C452431310598F50E944211DF
:103250009093E8028093E702C031FCE5DF0709F4B0
:10326000E0C008F061C0C8309CE5D90709F4CBC0C4
:1032700088F5C430FCE5DF0709F4B3C0E8F4C230D8
:103280009CE5D90709F4A7C08091E7028260C330AA
:10329000DC4509F4A3C08091E7029091E8020E9406
:1032A00050110E94BA0A80E004C0C236EDE5DE0784
:1032B00069F2DF91CF9108958091E7028061C63075
:1032C000FCE5DF0709F48AC008F48FC08091E702AB
:1032D000806284C08091E7028D7FCC309CE5D90765
:1032E00009F47CC070F48091E7028C60CA30FCE580
:1032F000DF0709F473C008F48AC08091E7028E7F6B
:103300006DC08091E702877FCE309CE5D90709F434
:1033100065C08091E7028B7FCF30DC4508F45EC04A
:103320008091E7028F7E5AC0CD3FFCE5DF0709F4AC
:1033300074C040F5C4319CE5D90709F48AC058F43B
:10334000C231FCE5DF0709F474C008F46EC0809157
:10335000E702837F43C0CB3F9CE5D90709F449C00E
:1033600008F04DC0C531DC4509F095CF8091E702EA
:1033700082FB992790F921E0922790FB82F990FB3C
:1033800083F92CC0C1308DE5D80709F458C088F402
:103390008091E8028360CF3FECE5DE0769F1809120
:1033A000E8028D7FC115DD4538F18091E8028C7F00
:1033B00023C0C3308DE5D80709F458C008F452C0C3
:1033C000C236DD4509F067CF9091E702892F8F7EE5
:1033D00094FF806103C08091E70281608093E702DF
:1033E0005ACF8091E7028460F9CF8091E70288602C
:1033F000F5CF8091E80281608093E8024CCF809104
:10340000E8028260F9CF8091E7028064E7CF0E94F2
:10341000BA0A8091E7028068E1CF8091E8028E7F4E
:10342000EBCF8091E7028F7DD9CF8091E7028F7B30
:10343000D5CF0E94BA0A8091E7028F77CFCF8091D3
:10344000E802982F909591708E7F892B90FB81F9DF
:10345000D3CF0E94BA0A9091E702892F97FB87F990
:103460008058BCCF81E00E94D61115CF80E0FBCF01
:1034700081E01FCFCF93DF93EB0186319C4511F59F
:103480000E9440109A81992399F08A7A91E009F478
:1034900090E09093B402811109C089E20E941B1050
:1034A0000E94931080E0DF91CF91089585E3F6CFDD
:1034B0008091B402811104C089E20E942210F0CFF1
:1034C00085E3FBCF81E0EFCF0F931F93CF93DF9383
:1034D000C42FD22FFC0182818823C9F04093B70208
:1034E0000E945D1E9093B6028093B50280E28C0F1D
:1034F000883008F050C0C77081E001C0880FCA95BD
:10350000EAF7DF91CF911F910F910C94130810915E
:10351000B702141335C08091B5029091B6020E9493
:10352000751E883C910560F5C0E2CD0F1D17B9F0FE
:1035300080E2810F883040F4177081E001C0880F6D
:103540001A95EAF70E941A08C83048F481E09D2FC6
:10355000977001C0880F9A95EAF70E941308802F90
:103560000E940B08C830B8F4D77081E001C0880F02
:10357000DA95EAF7DF91CF911F910F910C941A0819
:1035800080E28C0F883038F4C77081E001C0880F6A
:10359000CA95EAF7EFCFDF91CF911F910F91089570
:1035A0000F939C01CB01243F4CE5340759F1A8F45B
:1035B000293DFCE53F0701F12A3D4CE53407D1F1F7
:1035C000283D3C4591F406E221EE41EE68ED7CE5B4
:1035D0000E94641A80E00F910895263FFCE53F07A2
:1035E000E9F0B0F0273F3C45F9F0FC0182818823E7
:1035F00039F11092B702EFCF07E225EE45EE69ED03
:103600007CE5E6CF06E221EE40EE64EF7CE5E0CF1C
:1036100007E225EE44EE65EF7CE5DACF06E221EE27
:1036200042EE66EF7CE5D4CF07E225EE46EE67EF8B
:103630007CE5CECF08E221E045EE6AED7CE5C8CF1F
:1036400081E0C9CFCF93DF93EC0181E0898B8F813B
:103650000E94431088850E9456100E949310EA81B0
:10366000FB81309739F06C897D89CE010696DF9118
:10367000CF910994DF91CF910895CF93DF93EC011F
:103680008881823039F4FB01828193810E94650434
:1036900081E08B87DF91CF910895FC01808181309B
:1036A00029F4FB01808191810C946504823021F41E
:1036B000FB0182819381F8CF0895FC0180818130E4
:1036C00029F4FB01808191810C947C04823021F4E7
:1036D000FB0182819381F8CF0895EF92FF920F93BF
:1036E0001F93CF93DF93EC018A85811134C0EB8067
:1036F000FC8087E5F81A26E12E9DC0012F9D900DD4
:103700001124DC01A050BF4F1496ED91FC91159748
:10371000309731F054966D917C918A5F9E4F099558
:1037200086E18E9D80018F9D100D112400501F4F4A
:10373000F80187810E944910F80180850E945C1081
:103740000E949310188219861B861E821D82109279
:10375000B9021092B802DF91CF911F910F91FF90A3
:10376000EF900895DF92EF92FF920F931F93CF9304
:10377000DF937C01FB018281882399F080918A018B
:1037800090918B01019669F0C0E0D1E010E000E07B
:10379000DD24D39480918A0190918B018017910749
:1037A00044F4DF91CF911F910F91FF90EF90DF9044
:1037B00008958E818823D9F089859A858E159F0575
:1037C00039F48091B8029091B9028E159F0579F075
:1037D000DF86FC86EB868989811103C0CE010E94B9
:1037E000221BCE0106960E946D1B0E9463100F5F84
:1037F0001F4F6696CFCFEF92FF920F931F93CF93F9
:10380000DF937C0197558F3F910509F0E0F52091FA
:103810008A0130918B012817390724F490938B018A
:1038200080938A01FB01228136E1389F8001399F14
:10383000100D1124E801C050DF4F288B92818E813A
:10384000992349F1FA86E9868F5F8E830E945D1E77
:103850009E878D870E9476108F830E9440108887F4
:103860000E9453109885892B8887E881F9813097C9
:1038700031F06C897D89C8018A5F9E4F0995F0926D
:10388000B902E092B80281E0DF91CF911F910F91D0
:10389000FF90EF9008958823B1F38989882399F3E5
:1038A000C8018A5F9E4F0E946D1BEDCFEF92FF9281
:1038B0000F931F93CF93DF9380918A0190918B0197
:1038C00010E006E10196C1F5DF91CF911F910F91B4
:1038D000FF90EF900895089FF001099FF00D1124CB
:1038E000E050FF4FE288F388E114F10419F428EC6A
:1038F000E22EF12C089FE001099FD00D1124C05049
:10390000DF4F8E818823B9F08D859E850E94751EBC
:10391000E816F90680F4109F70011124898981113D
:1039200005C0C70180509F4F0E94221BC7018A5FBC
:103930009E4F0E946D1B1F5F812F90E020918A0196
:1039400030918B012817390734F6BECF90930D02C2
:1039500080930C0208959093BF028093BE02089555
:10396000E091BE02F091BF02309721F00190F0810A
:10397000E02D099480E00895E091BE02F091BF022D
:10398000309799F020919801222359F02091E70275
:1039900027FF07C0DC012C9111962C93119726E08C
:1039A0002C930280F381E02D09940895E091BE02EA
:1039B000F091BF02309739F022E0DC012C930480B3
:1039C000F581E02D099408952091BC023091BD024B
:1039D0002817390771F09093BD028093BC02E091E3
:1039E000BE02F091BF02309721F00680F781E02DF2
:1039F000099408952091BA023091BB022817390723
:103A000071F09093BB028093BA02E091BE02F091F4
:103A1000BF02309721F00084F185E02D09940895CC
:103A2000FC01329680919801882321F08091E70271
:103A30009EE187FF96E080E0915008F4089521917F
:103A40002223D1F38F5FF8CF662301F120919801F3
:103A50002223F1F02091E70227FF1AC0462F469556
:103A6000469546954E3190F4677021E030E002C0F3
:103A7000220F331F6A95E2F7840F911DFC018281AA
:103A800090E02823392381E0232B69F480E0089516
:103A9000FC01329608962191261721F0E817F907C4
:103AA000D1F7F4CF81E008959C01FC0132969FEF9D
:103AB00080E04191461751F09F3F19F4411101C038
:103AC000982F8F5F8630A9F79F3F09F40895290F3B
:103AD000311D97FD3A95F90162830895FC013296F4
:103AE00008962191261303C0DF0111971C92E81755
:103AF000F907B9F70895E62FE695E695E695EE31D4
:103B000068F4E80FF92FF11D677021E030E001C083
:103B1000220F6A95EAF78281822B82830895E62F2D
:103B2000E695E695E695EE3170F4E80FF92FF11D74
:103B3000677021E030E001C0220F6A95EAF7209516
:103B4000828128232283089520919801222329F03D
:103B50002091E70227FD0C947B1D0C94541D2091AD
:103B60009801222329F02091E70227FD0C948F1D54
:103B70000C946E1DFC01329680919801882351F0BF
:103B80008091E70287FF06C08EE1DF011D928A95D2
:103B9000E9F7089586E0F9CF08950C94CC1D8111C2
:103BA00005C081E08093C0020C94CD1D82E0FACF65
:103BB00083E08093C0020C94CD1D0C94CF1D81E056
:103BC0008093C0020C94CD1D0C94DF1D089580914C
:103BD0000103843031F10E946E051092C10288E128
:103BE00090E020E40FB6F894A895809360000FBE93
:103BF0002093600083B7817F846083BF83B7816037
:103C000083BF7894889583B78E7F83BF0FB6F8946F
:103C1000A895809160008861809360001092600098
:103C20000FBE089508950895CF930E94121E0E941A
:103C3000E7150E94131EC0E08C2F0E941D15892BD2
:103C400031F4CF5FC430C1F780E0CF91089581E0B7
:103C5000FCCF0E94BA0A0C94E0051F921FB61F9277
:103C600011248F939F93AF93BF938091C1028111D1
:103C700013C08091F9029091FA02A091FB02B091D9
:103C8000FC024196A11DB11D8093F9029093FA02A6
:103C9000A093FB02B093FC02BF91AF919F918F91D3
:103CA0001F901FBE1F90189582E084BD93E095BDC4
:103CB0009AEF97BD80936E0008952FB7F894809186
:103CC000F9029091FA02A091FB02B091FC022FBF81
:103CD00008952FB7F8946091F9027091FA028091DB
:103CE000FB029091FC022FBF08959C014FB7F894FE
:103CF0008091F9029091FA02A091FB02B091FC022E
:103D00004FBF821B930B089578941F921FB61F928A
:103D100011248F939F93AF93BF938091F902909159
:103D2000FA02A091FB02B091FC020196A11DB11D07
:103D30008093F9029093FA02A093FB02B093FC02E5
:103D4000BF91AF919F918F911F901FBE1F901895AB
:103D500087E797E7909301088093000888E19AE04D
:103D60000FB6F894A895809360000FBE9093600002
:103D7000FFCF8091E502089508959C0182E0809331
:103D8000E9009FEF8091E800915085FD06C085ED28
:103D90008A95F1F700009111F5CF8091E80085FF39
:103DA0000CC050E040E066E070E0C9010E94F620DF
:103DB0008091E8008E778093E8000895CF93DF9399
:103DC000EC01809198018823B1F18091E70287FF8F
:103DD00032C060E282E08093E9008FEF9091E800CA
:103DE000815095FD06C095ED9A95F1F7000081117F
:103DF000F5CF8091E80085FF1BC08091980170E0AD
:103E000050E040E0811104C050E040E068E070E024
:103E1000CE010E94F6208091E8008E778093E80022
:103E200080E2FE01A5ECB2E001900D928A95E1F7E7
:103E3000DF91CF91089568E081E0CDCF8093C202F9
:103E40007093C4026093C30280910103843001F532
:103E500082E08093E9008FEF9091E800815095FD1A
:103E600006C095ED9A95F1F700008111F5CF80918C
:103E7000E80085FF0DC050E040E063E070E082ECB8
:103E800092E00E94F6208091E8008E778093E8000F
:103E90000895BC0184E00C941E1FBC0183E00C94C7
:103EA0001E1F80910003811109C00E9486220E947A
:103EB000E3228091E20084608093E20008951092F2
:103EC000000308950C94DF1D6091FD0281E06111F3
:103ED00001C080E00C94D81D9091010381E09430E2
:103EE00009F080E06091FD020C94DD1D42E061EC80
:103EF00081E00E94022242E261EC82E00E94022202
:103F00009091010381E0943009F080E06091FD021E
:103F10000C94CF1D80910303833009F460C030F40A
:103F20008130C9F1823009F49CC008958A3009F4C7
:103F300088C08B3009F46EC0893009F04FC0809181
:103F40000203813209F04AC0809106039091070371
:103F5000029708F043C08091E800877F8093E800D3
:103F60008091E80082FF36C09091F3008091F200CA
:103F7000029731F48091F100813011F0863021F404
:103F80008091F1008093E5028091E8008B77809327
:103F9000E8000C94362280910203813AF9F4809172
:103FA000E800877F8093E8008091060390910703E3
:103FB000892B61F460E285EC92E070E00E9445217B
:103FC0008091E8008B778093E800089560E090E0AE
:103FD00080E0F3CF809101038111C2CF08958091D9
:103FE0000203813AD9F78091060390910703892B48
:103FF000A9F78091E800877F8093E8008091E8002E
:1040000080FFFCCF809198018093F1008091E800BF
:104010008E77BDCF80910203813201F78091060334
:1040200090910703892BD1F68091E800877F8093D8
:10403000E8000E94362280910403809398010C943A
:10404000BA0A80910203813249F68091E800877FA5
:104050008093E8000E943622809105038093E60257
:10406000089580910203813A09F0B8CF8091E80069
:10407000877F8093E8008091E80080FFFCCF8091EB
:10408000E602C2CF84B7877F84BF0FB6F894A895A5
:1040900080916000886180936000109260000FBE84
:1040A00080E890E00FB6F8948093610090936100EF
:1040B0000FBE0C94E41D0E9486220E94E322E2EED1
:1040C000F0E080818460808378940C946C258CE887
:1040D00091E00C94AB1C809101038530A9F4809190
:1040E0000103853011F00C94291E0E94E71D809178
:1040F000FF028823A1F30E94141E882381F30E94EB
:10410000E0200E94BA0AEBCF089508950C9488200D
:10411000292F33272330310519F168F42130310577
:1041200009F444C02230310509F445C090E080E034
:1041300030E020E025C02132310549F1223231053D
:10414000A9F780E490E02DE436E061157105C1F037
:1041500086EB90E027E935E06130710589F0E6CF24
:1041600099278130910581F0009729F00297F1F6A7
:10417000E6E2F5E002C0E6E4F5E0849190E09F011C
:10418000FA01318320830895E6E3F5E0F6CF89E074
:1041900090E02CE535E06115710591F389E090E040
:1041A00025E735E06130710559F3C0CF82E190E039
:1041B00025E835E0E5CF8BE390E02AE435E0E0CF79
:1041C00080E189BD82E189BD09B400FEFDCF809107
:1041D000D8008F7D8093D8008091E000826080932A
:1041E000E0008091E00081FDFCCF0895AF92BF9286
:1041F000CF92DF92FF920F931F93CF93DF936C01C7
:10420000EB018A010E945522F82E811123C001156D
:10421000110539F0F80180819181C81BD90BC80EB6
:10422000D91EB12CA12C2097A9F08091E80085FD22
:1042300022C08091E8008E778093E8000115110577
:10424000A1F0F80180819181A80EB91EB182A082EF
:1042500085E0F82E8F2DDF91CF911F910F91FF9068
:10426000DF90CF90BF90AF9008950E945522882391
:10427000D1F2F82EEFCFF60181916F018093F1001A
:104280002197FFEFAF1ABF0ACECFFC018091080340
:104290009091090386179707A0F06115710529F41D
:1042A0009091E8009E779093E80090E06115710589
:1042B00051F4911108C08091E80082FF34C080E081
:1042C0000895BC01F2CF809101038823C1F18530AC
:1042D000C1F18091E80083FD30C08091E80082FD4B
:1042E000EACF8091E80080FFE1CF8091F300209138
:1042F000F200382F6115710519F02830310558F09A
:1043000091E02830310509F090E02091E8002E7707
:104310002093E800CBCF81918093F1006150710927
:104320002F5F3F4FE7CF80910103882341F0853015
:1043300041F08091E80083FFBECF81E0089582E0E4
:10434000089583E00895FC0180910803909109038A
:1043500086179707A0F06115710529F48091E80090
:104360008E778093E80090E06115710551F491110A
:1043700008C08091E80082FF35C080E00895BC014C
:10438000F2CF809101038823C9F18530C9F1809172
:10439000E80083FD31C08091E80082FDEACF809182
:1043A000E80080FFE1CF8091F3002091F200382FE8
:1043B0006115710519F02830310558F091E0283069
:1043C000310509F090E08091E8008E778093E80055
:1043D000CBCF84918093F1003196615071092F5FAA
:1043E0003F4FE6CF80910103882341F0853041F0B3
:1043F0008091E80083FFBDCF81E0089582E00895B9
:1044000083E00895982F973028F08F708093E9000B
:1044100081E008959093E900242F762F50E09817BB
:1044200031F07091EC002091ED005091F00021FDF1
:1044300002C09F5FE8CF3091EB003E7F3093EB00EE
:104440003091ED003D7F3093ED003091EB00316015
:104450003093EB007093EC002093ED005093F0004C
:104460002091EE0027FDE5CF80E0089580910203C2
:1044700087FF13C08091E80082FF06C08091E800AA
:104480008B778093E80004C0809101038111F2CF03
:104490000895809101038823D9F38091E80080FF7B
:1044A000F8CF8091E8008E77ECCF2091E400309136
:1044B000E50095E6A9012091EC00822F817020FF94
:1044C00006C08091E80080FF06C080E0089520913A
:1044D000E80022FD1AC080910103882389F085300D
:1044E00089F08091EB0085FD0FC02091E4003091B0
:1044F000E50042175307F9F29150E1F684E0089580
:1045000082E0089583E0089581E008950E94F422F6
:104510000E94FC22E0EEF0E0808181608083E8ED83
:10452000F0E080818F77808319BCA7EDB0E08C919B
:104530008E7F8C9380818F7E8083109200030895FC
:104540000F931F93CF93DF930E94F4220E94FC22CB
:10455000C8EDD0E088818F778883888180688883E0
:1045600088818F7D888319BC109201031092FD020F
:104570001092FF021092FE0200EE10E0F80180811E
:104580008B7F808388818160888342E060E080E067
:104590000E940222E1EEF0E080818E7F8083E2EED5
:1045A000F0E0808181608083808188608083F80171
:1045B00080818E7F8083888180618883DF91CF9125
:1045C0001F910F910895E8EDF0E080818F7E808348
:1045D000E7EDF0E080818160808384E082BF81E04C
:1045E000809300030C94A022E8EDF0E080818E7FA0
:1045F00080831092E20008951092DA001092E10098
:1046000008951F920F920FB60F9211242F933F938C
:104610004F935F936F937F938F939F93AF93BF93CA
:10462000EF93FF938091E10082FF0BC08091E20045
:1046300082FF07C08091E1008B7F8093E1000E94A0
:104640006B258091DA0080FF19C08091D80080FF2F
:1046500015C08091DA008E7F8093DA008091D900B6
:1046600080FF96C080E189BD82E189BD09B400FE6A
:10467000FDCF81E0809301030E94511F8091E100F2
:1046800080FF19C08091E20080FF15C08091E20098
:104690008E7F8093E2008091E20080618093E2004F
:1046A0008091D80080628093D80019BC85E0809307
:1046B00001030E94641F8091E10084FF2BC0809160
:1046C000E20084FF27C080E189BD82E189BD89B510
:1046D000982F917080FFFBCF8091D8008F7D8093C1
:1046E000D8008091E1008F7E8093E1008091E2000C
:1046F0008F7E8093E2008091E20081608093E200EF
:104700008091FD02882309F449C084E0809301036D
:104710000E946C1F8091E10083FF29C08091E2001C
:1047200083FF25C08091E100877F8093E10082E0D4
:10473000809301031092FD028091E1008E7F8093AF
:10474000E1008091E2008E7F8093E2008091E200A0
:1047500080618093E20042E060E080E00E940222FB
:104760008091F00088608093F0000E94621FFF91AA
:10477000EF91BF91AF919F918F917F916F915F91D9
:104780004F913F912F910F900FBE0F901F90189552
:1047900019BC109201030E945F1F70CF8091E3004B
:1047A00087FD93E090930103B3CF1F920F920FB652
:1047B0000F9211242F933F934F935F936F937F93A7
:1047C0008F939F93AF93BF93CF93DF93EF93FF9319
:1047D000D091E900DF708091EC00C82FC17080FD9E
:1047E000C0E81092E9008091F000877F8093F0008C
:1047F00078940E9419241092E9008091F00088605A
:104800008093F000CD2BCF70C093E900FF91EF9122
:10481000DF91CF91BF91AF919F918F917F916F91D8
:104820005F914F913F912F910F900FBE0F901F906E
:1048300018951F93CF93DF93CDB7DEB7AA970FB626
:10484000F894DEBF0FBECDBF82E093E02091F1006F
:10485000FC012193CF01F3E08A309F07B9F70E9452
:104860008A1F8091E80083FF1EC18091020390910E
:1048700003039A3008F017C1E92FF0E0EC5DF94D21
:104880000C949B25803899F0823809F00CC18091F6
:1048900006038F70873008F006C18093E90080918D
:1048A000EB0085FB882780F91092E90006C0809113
:1048B000FE029091FF02911182609091E800977F33
:1048C0009093E8008093F1001092F1008091E8004D
:1048D0008E77E5C0882309F4D3C0823009F0E3C0A5
:1048E000809104038111D6C0809106038F702FEF51
:1048F000280F263008F0D7C08093E9002091EB0004
:1049000020FFC8C0933031F48091EB008062809327
:10491000EB00C0C09091EB0090619093EB0021E020
:1049200030E001C0220F8A95EAF72093EA00109246
:10493000EA008091EB008860EACF8111B4C0109149
:1049400004031F778091E3008078812B8093E3003C
:104950008091E800877F8093E8000E943622809152
:10496000E80080FFFCCF8091E30080688093E30043
:1049700082E0111183E08093010395C0805882305A
:1049800008F091C080910403909105038C3D23E0D1
:104990009207A1F583E08A838AE289834FB7F8946E
:1049A000DE01139620E03EE051E2E32FF0E0509369
:1049B0005700E49120FF03C0E295EF703F5FEF7076
:1049C0008E2F90E0EA30C0F0C7968D939D932F5FB5
:1049D000243159F74FBF8091E800877F8093E8002A
:1049E0006AE270E0CE0101960E9445218091E800C4
:1049F0008B778093E80057C0C096E7CF609106039D
:104A000070910703AE014F5F5F4F0E948620BC018B
:104A1000892B09F448C09091E800977F9093E800B3
:104A200089819A810E94A321E1CF8038E1F58091AC
:104A3000E800877F8093E8008091FD028093F10079
:104A400045CF811130C090910403923060F5809180
:104A5000E800877F8093E8009093FD020E94362251
:104A60008091FD02882311F084E005C08091E3006D
:104A700087FDFACF81E0809301030E94761F13C067
:104A800080910403813079F481E0933009F080E073
:104A90008093FF021092E9008091E800877F809365
:104AA000E8000E9436228091E80083FF0AC08091CE
:104AB000E800877F8093E8008091EB00806280931C
:104AC000EB00AA960FB6F894DEBF0FBECDBFDF9104
:104AD000CF911F9108950895CF938091010388236A
:104AE000A1F0C091E900CF709091EC00892F817006
:104AF00090FD80E8C82B1092E9008091E80083FDCA
:104B00000E941924CF70C093E900CF91089597FBBC
:104B1000072E16F4009407D077FD09D00E94A12536
:104B200007FC05D03EF4909581959F4F08957095B0
:104B300061957F4F0895EE0FFF1F0590F491E02DD2
:104B40000994AA1BBB1B51E107C0AA1FBB1FA617D4
:104B5000B70710F0A61BB70B881F991F5A95A9F726
:104B600080959095BC01CD010895FB01DC0104C046
:104B70008D910190801921F441505040C8F7881B55
:104B8000990B0895F999FECF92BD81BDF89A9927A6
:104B900080B50895A8E1B0E042E050E00C94F6251D
:104BA000262FF999FECF92BD81BDF89A019700B4E6
:104BB000021639F01FBA20BD0FB6F894FA9AF99A86
:104BC0000FBE08950396272F0E94D1250E94D0255D
:104BD000252F0E94D125242F0C94D1250196272F13
:104BE0000E94D1250C94D025DC01CB01FC01F99960
:104BF000FECF06C0F2BDE1BDF89A319600B40D9229
:104C000041505040B8F70895F894FFCF5B085B0817
:104C10008C088C081F093B09BB08BB084609D20950
:104C2000E109E109390ABB08BB08420AC90AC90AF5
:104C3000D20AD20AD40AD20AD20AD20AC90AC90AA4
:104C4000D90AD20AD20AD90A42246A2453256A24EC
:0C4C500053259D24BE2453251525212545
:104C5C000000000000000000000000000000000048
:104C6C000000000000003D1B4D1B5D1B0000000000
:104C7C00000000000000000000007A013D1B4D1BED
:104C8C005D1B0000000000000000000000000000A0
:104C9C0076013D1B4D1B5D1B000000000000000059
:104CAC0000000000000072013D1B4D1B5D1B00004D
:104CBC000000000000000000000000006E012F004A
:104CCC0030002F0230022602270264026400C80062
:104CDC006F022808641E140A321EFFFFB91EDE1E66
:104CEC00BD1E4D1F491FBC1E01E200E900EA00B5C4
:104CFC0000B600B700CD008301CC008A019201946C
:104D0C00012102230224022502260227022A02B3D1
:104D1C0000B4006F007000818283E200E900EA00B9
:104D2C00B500B600B700CD008301CC008A0192011A
:104D3C0094012102230224022502260227022A02C0
:104D4C00B300B4006F007000818283F4F53534C673
:0C4D5C0097669490919293F633323600E3
:00000001FF
